:100000000C9434000C943E000C943E000C943E0082
:100010000C943E000C943E000C943E000C943E0068
:100020000C943E000C943E000C943E000C943E0058
:100030000C943E000C943E000C943E000C943E0048
:100040000C943E000C943E000C943E000C943E0038
:100050000C943E000C943E000C943E000C943E0028
:100060000C943E000C943E0011241FBECFEFD8E04C
:10007000DEBFCDBF0E9440000C9456000C940000DF
:10008000259A2D9A8FEF93EDA0E381509040A040E8
:10009000E1F700C000002D988FEF93EDA0E38150B1
:1000A0009040A040E1F700C00000EBCFF894FFCFF4
:00000001FF
